{
  "contractName": "TodoList",
  "abi": [
    {
      "constant": true,
      "inputs": [
        {
          "name": "",
          "type": "uint256"
        }
      ],
      "name": "tasks",
      "outputs": [
        {
          "name": "id",
          "type": "uint256"
        },
        {
          "name": "content",
          "type": "string"
        },
        {
          "name": "completed",
          "type": "bool"
        }
      ],
      "payable": false,
      "stateMutability": "view",
      "type": "function",
      "signature": "0x8d977672"
    },
    {
      "constant": true,
      "inputs": [],
      "name": "taskCount",
      "outputs": [
        {
          "name": "",
          "type": "uint256"
        }
      ],
      "payable": false,
      "stateMutability": "view",
      "type": "function",
      "signature": "0xb6cb58a5"
    },
    {
      "inputs": [],
      "payable": false,
      "stateMutability": "nonpayable",
      "type": "constructor",
      "signature": "constructor"
    },
    {
      "anonymous": false,
      "inputs": [
        {
          "indexed": false,
          "name": "id",
          "type": "uint256"
        },
        {
          "indexed": false,
          "name": "content",
          "type": "string"
        },
        {
          "indexed": false,
          "name": "completed",
          "type": "bool"
        }
      ],
      "name": "TaskCreated",
      "type": "event",
      "signature": "0x05d0fb833127fc08168556d0e7ca9554fc3f6bc843b3b7d2bf1c35aea6bab660"
    },
    {
      "anonymous": false,
      "inputs": [
        {
          "indexed": false,
          "name": "id",
          "type": "uint256"
        },
        {
          "indexed": false,
          "name": "completed",
          "type": "bool"
        }
      ],
      "name": "TaskCompleted",
      "type": "event",
      "signature": "0xe21fa966ca5cd02748c0752352d18c48165e61cb55b4c29cccf924b5a95fcff1"
    },
    {
      "constant": false,
      "inputs": [
        {
          "name": "_content",
          "type": "string"
        }
      ],
      "name": "createTask",
      "outputs": [],
      "payable": false,
      "stateMutability": "nonpayable",
      "type": "function",
      "signature": "0x111002aa"
    },
    {
      "constant": false,
      "inputs": [
        {
          "name": "_id",
          "type": "uint256"
        }
      ],
      "name": "toggleComplete",
      "outputs": [],
      "payable": false,
      "stateMutability": "nonpayable",
      "type": "function",
      "signature": "0x0951e5bd"
    }
  ],
  "bytecode": "0x60806040526000805534801561001457600080fd5b506100626040805190810160405280601481526020017f436865636b206f757420534c4d4f44442e434f4d000000000000000000000000815250610067640100000000026401000000009004565b610252565b600080815480929190600101919050555060606040519081016040528060005481526020018281526020016000151581525060016000805481526020019081526020016000206000820151816000015560208201518160010190805190602001906100d39291906101ad565b5060408201518160020160006101000a81548160ff0219169083151502179055509050507f05d0fb833127fc08168556d0e7ca9554fc3f6bc843b3b7d2bf1c35aea6bab660600054826000604051808481526020018060200183151515158152602001828103825284818151815260200191508051906020019080838360005b8381101561016e578082015181840152602081019050610153565b50505050905090810190601f16801561019b5780820380516001836020036101000a031916815260200191505b5094505050505060405180910390a150565b828054600181600116156101000203166002900490600052602060002090601f016020900481019282601f106101ee57805160ff191683800117855561021c565b8280016001018555821561021c579182015b8281111561021b578251825591602001919060010190610200565b5b509050610229919061022d565b5090565b61024f91905b8082111561024b576000816000905550600101610233565b5090565b90565b610719806102616000396000f3fe608060405260043610610062576000357c0100000000000000000000000000000000000000000000000000000000900463ffffffff1680630951e5bd14610067578063111002aa146100a25780638d9776721461016a578063b6cb58a514610230575b600080fd5b34801561007357600080fd5b506100a06004803603602081101561008a57600080fd5b810190808035906020019092919050505061025b565b005b3480156100ae57600080fd5b50610168600480360360208110156100c557600080fd5b81019080803590602001906401000000008111156100e257600080fd5b8201836020820111156100f457600080fd5b8035906020019184600183028401116401000000008311171561011657600080fd5b91908080601f016020809104026020016040519081016040528093929190818152602001838380828437600081840152601f19601f820116905080830192505050505050509192919290505050610409565b005b34801561017657600080fd5b506101a36004803603602081101561018d57600080fd5b810190808035906020019092919050505061054f565b604051808481526020018060200183151515158152602001828103825284818151815260200191508051906020019080838360005b838110156101f35780820151818401526020810190506101d8565b50505050905090810190601f1680156102205780820380516001836020036101000a031916815260200191505b5094505050505060405180910390f35b34801561023c57600080fd5b5061024561061e565b6040518082815260200191505060405180910390f35b610263610624565b600160008381526020019081526020016000206060604051908101604052908160008201548152602001600182018054600181600116156101000203166002900480601f0160208091040260200160405190810160405280929190818152602001828054600181600116156101000203166002900480156103255780601f106102fa57610100808354040283529160200191610325565b820191906000526020600020905b81548152906001019060200180831161030857829003601f168201915b505050505081526020016002820160009054906101000a900460ff1615151515815250509050806040015115816040019015159081151581525050806001600084815260200190815260200160002060008201518160000155602082015181600101908051906020019061039a929190610648565b5060408201518160020160006101000a81548160ff0219169083151502179055509050507fe21fa966ca5cd02748c0752352d18c48165e61cb55b4c29cccf924b5a95fcff182826040015160405180838152602001821515151581526020019250505060405180910390a15050565b60008081548092919060010191905055506060604051908101604052806000548152602001828152602001600015158152506001600080548152602001908152602001600020600082015181600001556020820151816001019080519060200190610475929190610648565b5060408201518160020160006101000a81548160ff0219169083151502179055509050507f05d0fb833127fc08168556d0e7ca9554fc3f6bc843b3b7d2bf1c35aea6bab660600054826000604051808481526020018060200183151515158152602001828103825284818151815260200191508051906020019080838360005b838110156105105780820151818401526020810190506104f5565b50505050905090810190601f16801561053d5780820380516001836020036101000a031916815260200191505b5094505050505060405180910390a150565b6001602052806000526040600020600091509050806000015490806001018054600181600116156101000203166002900480601f0160208091040260200160405190810160405280929190818152602001828054600181600116156101000203166002900480156106015780601f106105d657610100808354040283529160200191610601565b820191906000526020600020905b8154815290600101906020018083116105e457829003601f168201915b5050505050908060020160009054906101000a900460ff16905083565b60005481565b60606040519081016040528060008152602001606081526020016000151581525090565b828054600181600116156101000203166002900490600052602060002090601f016020900481019282601f1061068957805160ff19168380011785556106b7565b828001600101855582156106b7579182015b828111156106b657825182559160200191906001019061069b565b5b5090506106c491906106c8565b5090565b6106ea91905b808211156106e65760008160009055506001016106ce565b5090565b9056fea165627a7a7230582098989d081866445bc87624d2f0bfc9ba92dba2bc6388d3963470e66c56772cce0029",
  "source": "// SPDX-License-Identifier: MIT\r\npragma solidity >=0.4.22 <0.9.0;\r\n\r\ncontract TodoList {\r\n\r\n    // keep track of the to-do list items \r\n    uint public taskCount = 0; // variables are written => blockchain unsigned int -  cannot be negative\r\n\r\n    // Define data type - like the model\r\n    struct Task {\r\n        uint id;\r\n        string content;\r\n        bool completed;  \r\n    }\r\n\r\n    // Create Mapping (key/value pair) like an array/obj? hash\r\n    mapping(uint => Task) public tasks;\r\n\r\n    // TRIGGER: Task Created - Event Listener  \r\n    event TaskCreated(\r\n        uint id,\r\n        string content, \r\n        bool completed\r\n    );\r\n\r\n    // TRIGGER: Task Completed - Event Listener\r\n    event TaskCompleted(\r\n        uint id,\r\n        bool completed\r\n    );\r\n\r\n    constructor() public {\r\n        createTask(\"Check out SLMODD.COM\");\r\n    }\r\n\r\n    function createTask(string memory _content) public {\r\n        // detemine the ID of the taks we are creating \r\n        taskCount ++;\r\n        // Create the new task and add it to the count indexed array. \r\n        // IE = create new Task _blank_ w/ text here that is incomplete -> array[0]. ++\r\n        tasks[taskCount] = Task(taskCount, _content, false);\r\n\r\n        // broadcast event that this task was created\r\n        // Whenever we call the createTask FN it can listen for us\r\n        emit TaskCreated(taskCount, _content, false);\r\n    }\r\n\r\n    function toggleComplete(uint _id) public {\r\n        Task memory _task = tasks[_id];\r\n        _task.completed = !_task.completed;\r\n        tasks[_id] = _task;\r\n\r\n        // broadcast event that this task was completed\r\n        // Whenver we call the toggleCompleted FN it can listen for us\r\n        emit TaskCompleted(_id, _task.completed);\r\n    }\r\n} \r\n\r\n\r\n// Recycle BIN: \r\n// Underscores w/ variables in solidity \r\n// -- no semantic difference. used to differentaite between FUNCTION args and global variables\r\n// DATATYPES\r\n// -- FOUR types really \r\n// // ---- 1: UINT - basic integer / decimal Number variable\r\n// // ---- 2: String - normal string variable type\r\n// // ---- 3: Boolean - bool truthy falsy \r\n// // ---- 4: Address - like a bank account number unique id that represenets an account and are used to send and receive ether payments address variables are defined with ADDRESS 20 byte values like IS sha256 : ) ",
  "sourcePath": "C:/SLMODD/workspaces/eth-todo/contracts/TodoList.sol",
  "compiler": {
    "name": "solc",
    "version": "0.5.0+commit.1d4f565a.Emscripten.clang"
  },
  "schemaVersion": "3.0.1",
  "updatedAt": "2021-11-11T03:52:42.521Z",
  "devdoc": {
    "methods": {}
  },
  "userdoc": {
    "methods": {}
  }
}